S02700004F6E2D64656D616E642054726166666963206C6967687420636F6E74726F6C2E7372656372
S11300000C942A000C9449000C9447000C9447006B
S11300100C9447000C9447000C9447000C94470040
S11300200C9447000C9447000C9447000C94470030
S11300300C9447000C9447000C9447000C94470020
S11300400C9447000C9447000C9447000C94470010
S11300500C94470011241FBECFE5D8E0DEBFCDBF0E
S113006010E0A0E6B0E0ECE4FBE002C005900D92E5
S1130070A836B107D9F720E0A8E6B0E001C01D9288
S1130080A936B207E1F70E94CD010C94A4050C94A3
S113009000001F920F9200905F000F9211242F9284
S11300A03F924F925F926F927F928F929F92AF9204
S11300B0BF92CF92DF92EF92FF920F931F932F93F1
S11300C03F934F935F936F937F938F939F93AF93DC
S11300D0BF93EF93FF93CF93DF93CDB7DEB728970A
S11300E0DEBFCDBF8BE590E02BE530E0F901208148
S11300F02F7BFC01208319821A821B821C821D82A1
S11301001E821F8218861BC029813A814B815C8123
S11301106D817E818F819885A1E00E948F05A22E3A
S1130120B32EC42ED52EE62EF72E082F192FA98212
S1130130BA82CB82DC82ED82FE820F83188764E46C
S113014082E00E9423018130F9F220906000309017
S11301506100409062005090630060906400709071
S113016065008090660090906700A980BA80CB807B
S1130170DC80ED80FE800F8118852A2D3B2D4C2DCF
S11301805D2D6E2D7F2D802F912FA22CB32CC42C8E
S1130190D52CE62CF72C082D192D0E949B0548F42C
S11301A080916800882329F40E94D60481E080931A
S11301B068008BE590E02BE530E0F90120812064B4
S11301C0FC012083000028960FB6F894DEBF0FBE12
S11301D0CDBFDF91CF91FF91EF91BF91AF919F91EF
S11301E08F917F916F915F914F913F912F911F91CB
S11301F00F91FF90EF90DF90CF90BF90AF909F90C2
S11302008F907F906F905F904F903F902F900F90C2
S113021000925F000F901F901895CF93DF9300D04A
S1130220CDB7DEB789836A8340E06A8189810E9401
S1130230F901813011F481E001C080E00F900F904A
S1130240DF91CF910895CF93DF9300D01F92CDB764
S1130250DEB78A836B836B818A810E94E30389837F
S113026089810F900F900F90DF91CF910895CF93D4
S1130270DF9300D0CDB7DEB789836A8341E06A811A
S113028089810E94F901813011F481E001C080E08C
S11302900F900F90DF91CF910895CF93DF9300D00B
S11302A0CDB7DEB789836A8341E06A8189810E9480
S11302B0EE02813011F481E001C080E00F900F90D4
S11302C0DF91CF910895CF93DF9300D0CDB7DEB700
S11302D089836A8340E06A8189810E94EE028130C9
S11302E011F481E001C080E00F900F90DF91CF9175
S11302F00895CF93DF9300D0CDB7DEB789836A83A7
S11303006A8189810E944D04813011F481E001C029
S113031080E00F900F90DF91CF910895CF93DF93FA
S113032000D000D0CDB7DEB78B836C83198281E017
S11303308A830EC06C818B810E947901813011F413
S113034081E00DC00E9444058A8389818F5F89837F
S11303508981833018F48A81813061F380E00F90C1
S11303600F900F900F90DF91CF910895CF93DF936B
S113037000D0CDB7DEB789836A836A8189810E9400
S11303804D01813011F481E003C00E94F90480E042
S11303900F900F90DF91CF910895CF93DF931F9229
S11303A0CDB7DEB764E482E00E940D0164E482E02C
S11303B00E942301898361E480E00E94370161E4A3
S11303C080E00E944D0161E480E00E94630161E4E9
S11303D080E00E948E0161E481E00E94B60161E444
S11303E081E00E94630180E090E00F90DF91CF9163
S11303F00895CF93DF9300D01F92CDB7DEB78983E2
S11304006A834B838A81882F90E08234910509F4B2
S113041043C08334910524F48134910551F0D5C04F
S11304208334910509F46BC08434910509F49AC0AE
S1130430CCC08B818823B1F48AE390E02AE330E0D6
S1130440F9012081622F2981422F50E021E030E020
S113045002C0220F331F4A95E2F720952623FC01A0
S11304602083B5C08B818130A9F48AE390E02AE32C
S113047030E0F9012081622F2981422F50E021E0F0
S113048030E002C0220F331F4A95E2F7262BFC010D
S113049020839DC081E09CC08B818823B1F487E3D5
S11304A090E027E330E0F9012081622F2981422F77
S11304B050E021E030E002C0220F331F4A95E2F7FA
S11304C020952623FC01208382C08B818130A9F4EE
S11304D087E390E027E330E0F9012081622F29814E
S11304E0422F50E021E030E002C0220F331F4A9532
S11304F0E2F7262BFC0120836AC081E069C08B816E
S11305008823B1F484E390E024E330E0F90120810E
S1130510622F2981422F50E021E030E002C0220FF7
S1130520331F4A95E2F720952623FC0120834FC010
S11305308B818130A9F484E390E024E330E0F90175
S11305402081622F2981422F50E021E030E002C057
S1130550220F331F4A95E2F7262BFC01208337C074
S113056081E036C08B818823B1F481E390E021E3FC
S113057030E0F9012081622F2981422F50E021E0EF
S113058030E002C0220F331F4A95E2F7209526235C
S1130590FC0120831CC08B818130A9F481E390E0AD
S11305A021E330E0F9012081622F2981422F50E0BC
S11305B021E030E002C0220F331F4A95E2F7262BD8
S11305C0FC01208304C081E003C081E001C080E01D
S11305D00F900F900F90DF91CF910895CF93DF93F9
S11305E000D01F92CDB7DEB789836A834B838A819B
S11305F0882F90E08234910509F443C08334910537
S113060024F48134910551F0D5C08334910509F463
S11306106BC08434910509F49AC0CCC08B818823C3
S1130620B1F48BE390E02BE330E0F9012081622FF9
S11306302981422F50E021E030E002C0220F331F15
S11306404A95E2F720952623FC012083B5C08B81CF
S11306508130A9F48BE390E02BE330E0F9012081B1
S1130660622F2981422F50E021E030E002C0220FA6
S1130670331F4A95E2F7262BFC0120839DC081E0BD
S11306809CC08B818823B1F488E390E028E330E0B8
S1130690F9012081622F2981422F50E021E030E0CE
S11306A002C0220F331F4A95E2F720952623FC014E
S11306B0208382C08B818130A9F488E390E028E311
S11306C030E0F9012081622F2981422F50E021E09E
S11306D030E002C0220F331F4A95E2F7262BFC01BB
S11306E020836AC081E069C08B818823B1F485E3EB
S11306F090E025E330E0F9012081622F2981422F27
S113070050E021E030E002C0220F331F4A95E2F7A7
S113071020952623FC0120834FC08B818130A9F4CE
S113072085E390E025E330E0F9012081622F2981FF
S1130730422F50E021E030E002C0220F331F4A95DF
S1130740E2F7262BFC01208337C081E036C08B8181
S11307508823B1F482E390E022E330E0F9012081C0
S1130760622F2981422F50E021E030E002C0220FA5
S1130770331F4A95E2F720952623FC0120831CC0F1
S11307808B818130A9F482E390E022E330E0F90127
S11307902081622F2981422F50E021E030E002C005
S11307A0220F331F4A95E2F7262BFC01208304C055
S11307B081E003C081E001C080E00F900F900F90B2
S11307C0DF91CF910895CF93DF9300D01F92CDB7DF
S11307D0DEB78A836B8319828B81882F90E0823401
S11307E09105F9F08334910524F48134910541F0A5
S11307F04BC08334910531F184349105A1F144C097
S113080089E390E0FC018081882F90E02A81222FE7
S113081030E002C0959587952A95E2F78170898327
S113082035C086E390E0FC018081882F90E02A8126
S1130830222F30E002C0959587952A95E2F78170C2
S1130840898324C083E390E0FC018081882F90E0B9
S11308502A81222F30E002C0959587952A95E2F7E8
S11308608170898313C080E390E0FC018081882F2C
S113087090E02A81222F30E002C0959587952A9531
S1130880E2F78170898302C081E001C089810F9001
S11308900F900F90DF91CF910895CF93DF9300D005
S11308A0CDB7DEB789836A838A81882F90E082344A
S11308B0910521F18334910524F48134910549F0A3
S11308C05CC08334910579F18434910509F440C006
S11308D054C08BE390E02BE330E0F9012081622FD8
S11308E02981422F50E021E030E002C0220F331F63
S11308F04A95E2F72627FC01208341C088E390E073
S113090028E330E0F9012081622F2981422F50E051
S113091021E030E002C0220F331F4A95E2F7262778
S1130920FC0120832CC085E390E025E330E0F9014D
S11309302081622F2981422F50E021E030E002C063
S1130940220F331F4A95E2F72627FC01208317C0A4
S113095082E390E022E330E0F9012081622F2981D3
S1130960422F50E021E030E002C0220F331F4A95AD
S1130970E2F72627FC01208302C081E001C080E069
S11309800F900F90DF91CF910895CF93DF93CDB760
S1130990DEB783E590E023E530E0F90120812560AE
S11309A0FC01208380E0DF91CF910895CF93DF9302
S11309B0CDB7DEB783E590E023E530E0F90120818F
S11309C02E7FFC01208383E590E023E530E0F901EC
S11309D020812D7FFC01208383E590E023E530E036
S11309E0F90120812B7FFC01208380E0DF91CF91EE
S11309F00895CF93DF9300D0CDB7DEB782E590E0C2
S1130A002CE0FC01208319820E94C50483E590E058
S1130A10FC01808181708A8388E590E028E530E0DC
S1130A20F90120812160FC01208320C0000088E5B9
S1130A3090E0FC018081882F90E081709927892BB8
S1130A4019F48A81813099F388E590E028E530E053
S1130A50F90120812160FC01208389818F5F8983D2
S1130A6083E590E0FC01808181708A8389818531EE
S1130A7018F48A818130D1F20E94D6048A810F90C1
S1130A800F90DF91CF910895CF93DF9300D0CDB72E
S1130A90DEB782E590E02CE0FC01208319820E94FD
S1130AA0C50483E590E0FC01808181708A8388E538
S1130AB090E028E530E0F90120812160FC012083E9
S1130AC020C0000088E590E0FC018081882F90E040
S1130AD081709927892B19F48A81813099F388E5EB
S1130AE090E028E530E0F90120812160FC012083B9
S1130AF089818F5F898383E590E0FC018081817027
S1130B008A838981833018F48A818130D1F20E94EA
S1130B10D6048A810F900F90DF91CF91089500241D
S1130B20A7FD00942A0F301D401D501D601D701D2F
S1130B30801D901D08952A153B054C055D056E0525
S10F0B407F05800791070895F894FFCF0B
S10B0B4CDC05000000000000BC
S9030000FC
